{
  "_format": "hh-sol-artifact-1",
  "contractName": "Inbox",
  "sourceName": "contracts/inbox.sol",
  "abi": [
    {
      "anonymous": false,
      "inputs": [
        {
          "indexed": true,
          "internalType": "address",
          "name": "contractAddress",
          "type": "address"
        },
        {
          "indexed": true,
          "internalType": "address",
          "name": "executor",
          "type": "address"
        },
        {
          "indexed": false,
          "internalType": "uint256",
          "name": "rewardPaid",
          "type": "uint256"
        }
      ],
      "name": "ContractExecuted",
      "type": "event"
    },
    {
      "anonymous": false,
      "inputs": [
        {
          "indexed": true,
          "internalType": "address",
          "name": "contractAddress",
          "type": "address"
        },
        {
          "indexed": true,
          "internalType": "address",
          "name": "invoker",
          "type": "address"
        },
        {
          "indexed": false,
          "internalType": "uint256",
          "name": "reward",
          "type": "uint256"
        },
        {
          "indexed": false,
          "internalType": "bytes",
          "name": "data",
          "type": "bytes"
        }
      ],
      "name": "ContractRegistered",
      "type": "event"
    },
    {
      "anonymous": false,
      "inputs": [
        {
          "indexed": true,
          "internalType": "address",
          "name": "executor",
          "type": "address"
        },
        {
          "indexed": false,
          "internalType": "uint256",
          "name": "rewardPaid",
          "type": "uint256"
        }
      ],
      "name": "RewardClaimed",
      "type": "event"
    },
    {
      "inputs": [
        {
          "internalType": "address",
          "name": "contractAddress",
          "type": "address"
        }
      ],
      "name": "executeRegisteredContract",
      "outputs": [],
      "stateMutability": "nonpayable",
      "type": "function"
    },
    {
      "inputs": [
        {
          "internalType": "address",
          "name": "contractAddress",
          "type": "address"
        },
        {
          "internalType": "bytes",
          "name": "data",
          "type": "bytes"
        }
      ],
      "name": "registerContract",
      "outputs": [],
      "stateMutability": "payable",
      "type": "function"
    },
    {
      "inputs": [
        {
          "internalType": "address",
          "name": "",
          "type": "address"
        }
      ],
      "name": "registeredCallbacks",
      "outputs": [
        {
          "internalType": "uint256",
          "name": "reward",
          "type": "uint256"
        },
        {
          "internalType": "bytes",
          "name": "data",
          "type": "bytes"
        },
        {
          "internalType": "bool",
          "name": "executed",
          "type": "bool"
        }
      ],
      "stateMutability": "view",
      "type": "function"
    }
  ],
  "bytecode": "0x608060405234801561001057600080fd5b50610d7c806100206000396000f3fe6080604052600436106100345760003560e01c8063da9b530014610039578063ec7117b314610062578063f308846f1461007e575b600080fd5b34801561004557600080fd5b50610060600480360381019061005b919061059c565b6100bd565b005b61007c6004803603810190610077919061062e565b6102df565b005b34801561008a57600080fd5b506100a560048036038101906100a0919061059c565b610475565b6040516100b493929190610752565b60405180910390f35b60008060008373ffffffffffffffffffffffffffffffffffffffff1673ffffffffffffffffffffffffffffffffffffffff16815260200190815260200160002090508060020160009054906101000a900460ff1615610151576040517f08c379a0000000000000000000000000000000000000000000000000000000008152600401610148906107ed565b60405180910390fd5b60008273ffffffffffffffffffffffffffffffffffffffff168260010160405161017b9190610910565b6000604051808303816000865af19150503d80600081146101b8576040519150601f19603f3d011682016040523d82523d6000602084013e6101bd565b606091505b5050905080610201576040517f08c379a00000000000000000000000000000000000000000000000000000000081526004016101f890610973565b60405180910390fd5b60018260020160006101000a81548160ff02191690831515021790555060008260000154905060003390508073ffffffffffffffffffffffffffffffffffffffff166108fc839081150290604051600060405180830381858888f19350505050158015610272573d6000803e3d6000fd5b508073ffffffffffffffffffffffffffffffffffffffff168573ffffffffffffffffffffffffffffffffffffffff167fa4b548237a023e43d901c9ca50998ef56c1a7b3a9d0339eb77cad24c115a9036846040516102d09190610993565b60405180910390a35050505050565b620186a03411610324576040517f08c379a000000000000000000000000000000000000000000000000000000000815260040161031b90610a20565b60405180910390fd5b604051806060016040528034815260200183838080601f016020809104026020016040519081016040528093929190818152602001838380828437600081840152601f19601f820116905080830192505050505050508152602001600015158152506000808573ffffffffffffffffffffffffffffffffffffffff1673ffffffffffffffffffffffffffffffffffffffff1681526020019081526020016000206000820151816000015560208201518160010190816103e39190610c06565b5060408201518160020160006101000a81548160ff0219169083151502179055509050503373ffffffffffffffffffffffffffffffffffffffff168373ffffffffffffffffffffffffffffffffffffffff167f542ec48efd6db3cc08a5ee2e5f3ab5dd2a7e9b04194e34f5840d1d914a069cb534858560405161046893929190610d14565b60405180910390a3505050565b600060205280600052604060002060009150905080600001549080600101805461049e9061083c565b80601f01602080910402602001604051908101604052809291908181526020018280546104ca9061083c565b80156105175780601f106104ec57610100808354040283529160200191610517565b820191906000526020600020905b8154815290600101906020018083116104fa57829003601f168201915b5050505050908060020160009054906101000a900460ff16905083565b600080fd5b600080fd5b600073ffffffffffffffffffffffffffffffffffffffff82169050919050565b60006105698261053e565b9050919050565b6105798161055e565b811461058457600080fd5b50565b60008135905061059681610570565b92915050565b6000602082840312156105b2576105b1610534565b5b60006105c084828501610587565b91505092915050565b600080fd5b600080fd5b600080fd5b60008083601f8401126105ee576105ed6105c9565b5b8235905067ffffffffffffffff81111561060b5761060a6105ce565b5b602083019150836001820283011115610627576106266105d3565b5b9250929050565b60008060006040848603121561064757610646610534565b5b600061065586828701610587565b935050602084013567ffffffffffffffff81111561067657610675610539565b5b610682868287016105d8565b92509250509250925092565b6000819050919050565b6106a18161068e565b82525050565b600081519050919050565b600082825260208201905092915050565b60005b838110156106e15780820151818401526020810190506106c6565b60008484015250505050565b6000601f19601f8301169050919050565b6000610709826106a7565b61071381856106b2565b93506107238185602086016106c3565b61072c816106ed565b840191505092915050565b60008115159050919050565b61074c81610737565b82525050565b60006060820190506107676000830186610698565b818103602083015261077981856106fe565b90506107886040830184610743565b949350505050565b600082825260208201905092915050565b7f436f6e747261637420616c726561647920657865637574656400000000000000600082015250565b60006107d7601983610790565b91506107e2826107a1565b602082019050919050565b60006020820190508181036000830152610806816107ca565b9050919050565b7f4e487b7100000000000000000000000000000000000000000000000000000000600052602260045260246000fd5b6000600282049050600182168061085457607f821691505b6020821081036108675761086661080d565b5b50919050565b600081905092915050565b60008190508160005260206000209050919050565b6000815461089a8161083c565b6108a4818661086d565b945060018216600081146108bf57600181146108d457610907565b60ff1983168652811515820286019350610907565b6108dd85610878565b60005b838110156108ff578154818901526001820191506020810190506108e0565b838801955050505b50505092915050565b600061091c828461088d565b915081905092915050565b7f436f6e747261637420657865637574696f6e206661696c656400000000000000600082015250565b600061095d601983610790565b915061096882610927565b602082019050919050565b6000602082019050818103600083015261098c81610950565b9050919050565b60006020820190506109a86000830184610698565b92915050565b7f457468657220726577617264206d75737420626520677265617465722074686160008201527f6e206d696e696d756d2072657761726400000000000000000000000000000000602082015250565b6000610a0a603083610790565b9150610a15826109ae565b604082019050919050565b60006020820190508181036000830152610a39816109fd565b9050919050565b7f4e487b7100000000000000000000000000000000000000000000000000000000600052604160045260246000fd5b60006020601f8301049050919050565b600082821b905092915050565b600060088302610abc7fffffffffffffffffffffffffffffffffffffffffffffffffffffffffffffffff82610a7f565b610ac68683610a7f565b95508019841693508086168417925050509392505050565b6000819050919050565b6000610b03610afe610af98461068e565b610ade565b61068e565b9050919050565b6000819050919050565b610b1d83610ae8565b610b31610b2982610b0a565b848454610a8c565b825550505050565b600090565b610b46610b39565b610b51818484610b14565b505050565b5b81811015610b7557610b6a600082610b3e565b600181019050610b57565b5050565b601f821115610bba57610b8b81610878565b610b9484610a6f565b81016020851015610ba3578190505b610bb7610baf85610a6f565b830182610b56565b50505b505050565b600082821c905092915050565b6000610bdd60001984600802610bbf565b1980831691505092915050565b6000610bf68383610bcc565b9150826002028217905092915050565b610c0f826106a7565b67ffffffffffffffff811115610c2857610c27610a40565b5b610c32825461083c565b610c3d828285610b79565b600060209050601f831160018114610c705760008415610c5e578287015190505b610c688582610bea565b865550610cd0565b601f198416610c7e86610878565b60005b82811015610ca657848901518255600182019150602085019450602081019050610c81565b86831015610cc35784890151610cbf601f891682610bcc565b8355505b6001600288020188555050505b505050505050565b82818337600083830152505050565b6000610cf383856106b2565b9350610d00838584610cd8565b610d09836106ed565b840190509392505050565b6000604082019050610d296000830186610698565b8181036020830152610d3c818486610ce7565b905094935050505056fea2646970667358221220e5276f448aa8b5421d59a4cfa386fdabd4947c067b2573da7fde776cf129883064736f6c63430008130033",
  "linkReferences": {},
  "deployedLinkReferences": {}
}