{
  "_format": "hh-sol-artifact-1",
  "contractName": "ExampleContract",
  "sourceName": "contracts/exampleContract.sol",
  "abi": [
    {
      "inputs": [],
      "name": "data",
      "outputs": [
        {
          "internalType": "uint256",
          "name": "",
          "type": "uint256"
        }
      ],
      "stateMutability": "view",
      "type": "function"
    },
    {
      "inputs": [
        {
          "internalType": "uint256",
          "name": "newValue",
          "type": "uint256"
        }
      ],
      "name": "execute",
      "outputs": [
        {
          "internalType": "bool",
          "name": "",
          "type": "bool"
        }
      ],
      "stateMutability": "nonpayable",
      "type": "function"
    }
  ],
  "bytecode": "0x608060405234801561001057600080fd5b5061019f806100206000396000f3fe608060405234801561001057600080fd5b50600436106100365760003560e01c806373d4a13a1461003b578063fe0d94c114610059575b600080fd5b610043610089565b60405161005091906100ba565b60405180910390f35b610073600480360381019061006e9190610106565b61008f565b604051610080919061014e565b60405180910390f35b60005481565b60008160008190555060019050919050565b6000819050919050565b6100b4816100a1565b82525050565b60006020820190506100cf60008301846100ab565b92915050565b600080fd5b6100e3816100a1565b81146100ee57600080fd5b50565b600081359050610100816100da565b92915050565b60006020828403121561011c5761011b6100d5565b5b600061012a848285016100f1565b91505092915050565b60008115159050919050565b61014881610133565b82525050565b6000602082019050610163600083018461013f565b9291505056fea2646970667358221220713965ff446ae30361b8b54bdba749c04e14a8e544f334c2af01ee726af9514064736f6c63430008130033",
  "linkReferences": {},
  "deployedLinkReferences": {}
}